{
  "contractName": "Test",
  "abi": [
    {
      "constant": false,
      "inputs": [
        {
          "name": "_val",
          "type": "uint256"
        }
      ],
      "name": "setter",
      "outputs": [],
      "payable": false,
      "stateMutability": "nonpayable",
      "type": "function"
    },
    {
      "constant": true,
      "inputs": [],
      "name": "getter",
      "outputs": [
        {
          "name": "",
          "type": "uint256"
        }
      ],
      "payable": false,
      "stateMutability": "view",
      "type": "function"
    }
  ],
  "bytecode": "0x608060405234801561001057600080fd5b5060df8061001f6000396000f3006080604052600436106049576000357c0100000000000000000000000000000000000000000000000000000000900463ffffffff168063993a04b714604e578063d423740b146076575b600080fd5b348015605957600080fd5b50606060a0565b6040518082815260200191505060405180910390f35b348015608157600080fd5b50609e6004803603810190808035906020019092919050505060a9565b005b60008054905090565b80600081905550505600a165627a7a72305820236994ddb65f38ec524e570f650f87c447fcb5244d40892082eb8ec0b27b6c010029",
  "source": "pragma solidity ^0.4.2;\r\n\r\ncontract Test{\r\n    uint val;\r\n\r\n    function setter(uint _val) public {\r\n        val = _val;\r\n    }\r\n\r\n    function getter() public view returns(uint) {\r\n        return val;\r\n    }\r\n}",
  "sourcePath": "C:\\proj\\hypermine\\vishwas-api\\contracts\\Test.sol",
  "compiler": {
    "name": "solc",
    "version": "0.4.24+commit.e67f0147.Emscripten.clang"
  },
  "schemaVersion": "2.0.1",
  "updatedAt": "2018-09-13T10:05:06.350Z"
}